:1000000007C1000035C1000033C1000031C100004C
:100010002FC100002DC100002BC1000029C100002C
:1000200027C1000025C1000023C1000021C100003C
:100030001FC100001DC100001BC1000019C100004C
:1000400017C10000BEC7000013C1000011C10000AD
:100050000FC100000DC100000BC1000082C60000EE
:1000600007C10000F1C60000C6C6000001C10000C3
:10007000FFC00000FDC00000FBC00000F9C0000090
:1000800073C70000F5C00000F3C00000F1C000001D
:10009000EFC00000EDC00000EBC00000E9C00000B0
:1000A000E7C00000E5C0000032C70000E1C000006A
:1000B000DFC00000DDC00000DBC00000FBC60000A8
:1000C000D7C00000D5C00000D3C00000D1C00000E0
:1000D000CFC00000CDC00000CBC00000C9C00000F0
:1000E000C7C0000087018A0179017D018101C1013A
:1000F0008E01920198019C01A001A601AA01AE0106
:10010000C101B401B801BC0100000A0B02090C0DC9
:100110000E080703040100000000000000000000BA
:1001200000000000000000000000000000000000CF
:10013000000000001211100000000000000000008C
:1001400000000000000000000000000000000000AF
:100150002200250028002B002E003100340002016F
:100160000000050108010B01000021002400270008
:100170002A002D00300033000101000004010701B6
:100180000A0105050505070508080808020202021C
:100190000A0A080804040404010101010101010123
:1001A0000303030303030303040707070C0C0C0CEE
:1001B0000C0C0C0C020202020606060606060606D7
:1001C0000B0B0B0B0B0B0B0B010210202008081064
:1001D00020401020408002010201080402010102B7
:1001E0000408102040808040201008040201800490
:1001F00002018040201008040201080402010102EB
:1002000004081020408001020408102040800E08DD
:1002100011241FBECFEFD1E2DEBFCDBF00E00CBF87
:1002200012E0A0E0B2E0E0E9F6E100E00BBF02C0BE
:1002300007900D92A43AB107D9F723E0A4EAB2E0FF
:1002400001C01D92A73EB207E1F711E0C8E0D1E07E
:1002500000E006C021970109802FFE010E943A0BA1
:10026000C730D10780E00807A9F751D70C94460B97
:10027000C7CE90E0FC01E853FE4F2491FC01EE57FD
:10028000FE4F8491882399F090E0880F991FFC011C
:10029000E859FE4FA591B491FC01E25BFE4F8591B8
:1002A00094918FB7F894EC91E22BEC938FBF089563
:1002B000362F90E0FC01E85FFE4F4491FC01E853CB
:1002C000FE4F2491FC01EE57FE4F9491992309F4BF
:1002D0006CC0442309F455C050E0FA013197E23173
:1002E000F10508F04EC08827EE58FF4F8F4F0C9451
:1002F0003A0B809180008F7707C0809180008F7DBE
:1003000003C080918000877F809380003AC084B5CD
:100310008F7702C084B58F7D84BD33C08091B000DB
:100320008F7703C08091B0008F7D8093B00029C08B
:10033000809190008F7707C0809190008F7D03C0DF
:1003400080919000877F809390001BC08091A000D7
:100350008F7707C08091A0008F7D03C08091A0009F
:10036000877F8093A0000DC0809120018F7707C008
:10037000809120018F7D03C080912001877F809331
:100380002001E92FF0E0EE0FFF1FE25BFE4FA59189
:10039000B4919FB7F894311104C08C912095282313
:1003A00002C0EC912E2B2C939FBF0895863308F04A
:1003B000865390917B00282F2870977F922B9093E3
:1003C0007B008770806480937C0080917A008064D9
:1003D00080937A0080917A0086FDFCCF809178002E
:1003E0002091790090E0922B08953FB7F894809186
:1003F000AF029091B002A091B102B091B20226B5C5
:10040000A89B05C02F3F19F00196A11DB11D3FBF4C
:10041000BA2FA92F982F8827820F911DA11DB11DDA
:10042000BC01CD0142E0660F771F881F991F4A95D6
:10043000D1F708958F929F92AF92BF92CF92DF92A1
:10044000EF92FF926B017C01D0DF4B015C01C11484
:10045000D104E104F104E9F0C8DFDC01CB01881923
:100460009909AA09BB09883E9340A105B10578F313
:1004700021E0C21AD108E108F10888EE880E83E075
:10048000981EA11CB11CC114D104E104F10421F790
:10049000DECFFF90EF90DF90CF90BF90AF909F9016
:1004A0008F900895CF92DF92EF92FF920F931F9358
:1004B000CF93DF936C017A018B01C0E0D0E0CE15C1
:1004C000DF0581F0D8016D918D01D601ED91FC9190
:1004D0000190F081E02DC6011995892B11F021962C
:1004E000EECF7E01C701DF91CF911F910F91FF9059
:1004F000EF90DF90CF900895089580E090E0089508
:10050000FC01538D448D252F30E0842F90E0821B19
:10051000930B541710F0CF96089501970895FC019E
:10052000918D828D981761F0828DDF01A80FB11D2A
:100530005D968C91928D9F5F9F73928F90E008954E
:100540008FEF9FEF0895FC01918D828D981731F008
:10055000828DE80FF11D858D90E008958FEF9FEF5C
:100560000895FC01918D228D892F90E0805C9F4F32
:10057000821B91098F739927089583EB92E0F1DF35
:1005800021E0892B09F420E0822F0895FC01848D5D
:10059000DF01A80FB11DA35ABF4F2C91848D90E0AD
:1005A00001968F739927848FA689B7892C93A08988
:1005B000B1898C91837080648C93938D848D981312
:1005C00006C00288F389E02D80818F7D80830895A5
:1005D000EF92FF920F931F93CF93DF93EC0181E093
:1005E000888F9B8D8C8D981305C0E889F98980814F
:1005F00085FD25C0F62E0B8D10E00F5F1F4F0F738A
:100600001127E02E8C8DE8120BC00FB607FCFACF35
:10061000E889F989808185FFF5CFCE01B7DFF2CF78
:100620008B8DFE01E80FF11DE35AFF4FF0829FB75B
:10063000F8940B8FEA89FB89808180620AC09FB79A
:10064000F894EE89FF896083E889F9898081837055
:10065000806480839FBF81E090E0DF91CF911F9104
:100660000F91FF90EF900895CF93DF93EC01888D69
:100670008823C1F0EA89FB89808185FD05C0A889AE
:10068000B9898C9186FD0EC00FB607FCF5CF80812D
:1006900085FFF2CFA889B9898C9185FFEDCFCE0176
:1006A00075DFE8CFDF91CF91089580E090E0892B4E
:1006B00019F063DF811125C080E090E0892B41F0C3
:1006C00080E090E0892B21F00E94000081111CC085
:1006D00080E090E0892B41F080E090E0892B21F0D0
:1006E0000E940000811113C080E090E0892BA1F0EE
:1006F00080E090E0892B81F00E94000081110AC007
:1007000008950E940000D8CF0E940000E1CF0E940F
:100710000000EACF0C9400000895FC019081903312
:1007200088F5818128E830E0281B310987FD339561
:10073000220F331F220F331F6217730784F0828149
:1007400048E552E0481B510987FD5395440F551F5A
:10075000440F551F9B01461757070CF49A0122506E
:100760003109220F331F4FB7F894892F90E0FC0115
:10077000EE0FFF1F8E0F9F1FFC01E05BFC4F3283CB
:1007800021834FBF0895CF92DF92EF92FF92BC0179
:10079000603282E078070CF03DC077FD06C0653B13
:1007A00071052CF064EB70E002C060E070E08091B5
:1007B000E20328E830E06901C81AD10887FDD39424
:1007C000CC0CDD1CCC0CDD1C0D2C000CEE08FF0845
:1007D0008091E30328E532E0281B310987FD33953A
:1007E000220F331F220F331FC901330FAA0BBB0B7C
:1007F0009C01AD012C193D094E095F09DB01F7D6BB
:1008000024EB30E040E050E0CCD6C20ED31EE41E14
:10081000F51EB60181EE93E0FF90EF90DF90CF9050
:100820007CCF1F93CF93DF93EC01162F8881803309
:1008300008F04BC0862F1DDD8881E82FF0E09F0176
:10084000220F331FE20FF31FE05BFC4F1F739081F9
:10085000907C192B108319821A826CE0FFD69CE0E1
:10086000899FB001112440E050E09B01240F351F07
:10087000F901EE0FFF1F2E0F3F1FF901E05BFC4F48
:10088000908196FD16C04F5F5F4F4C30510569F760
:10089000813001F51092800082E0809381001092F7
:1008A000850010928400B19A80916F0082608093DD
:1008B0006F00E881F0E0CF01880F991FE80FF91F62
:1008C000E05BFC4F8081806480838881DF91CF91E1
:1008D0001F910895823061F41092900080939100EE
:1008E000109295001092940088BB80937100E1CF24
:1008F000833069F41092A00082E08093A1001092EE
:10090000A5001092A40089BB80937200D2CF811100
:10091000D0CF1092200182E0809321011092250116
:10092000109224018ABB80937300C3CFCF92DF92D1
:10093000EF92FF920F931F93CF93DF936C018B0184
:100940007A01EC01CC55DD4F888187FF04C0FB01A3
:100950001182108224C02CE02C9DC0012D9D900D91
:1009600011242881AC01420F511D27FD5A95209179
:10097000E00330E04217530794F42881AC01420FA2
:10098000511D27FD5A959A01FA01EE0FFF1F2E0FF8
:100990003F1FF901E05BFC4F208126FD19C08881D3
:1009A0008F5F88832CE02C9DC0012D9D900D11241C
:1009B0002881AC01420F511D27FD5A952091E0037B
:1009C00030E042175307B4F428812C303CF112C0B8
:1009D0002881820F911D27FD9A95FC01EE0FFF1FC4
:1009E0008E0F9F1FFC01E05BFC4F808160E08F73E6
:1009F0005FDCD5CFF80180819181049680349C49D9
:100A000018F480E49CE904C0F80180819181049687
:100A1000F701918380838FEF888344C0F801408180
:100A200051812881BC01620F711D27FD7A959B01C0
:100A3000FB01EE0FFF1F2E0F3F1FF901E05BFC4F84
:100A400021813281240F351FF701318320832881D2
:100A5000AC01420F511D27FD5A959A01FA01EE0F84
:100A6000FF1F2E0F3F1FF901E05BFC4F208126FF87
:100A700019C02881820F911D27FD9A95FC01EE0F68
:100A8000FF1F8E0F9F1FFC01E05BFC4F808161E028
:100A90008F73DF91CF911F910F91FF90EF90DF90B7
:100AA000CF9006CCDF91CF911F910F91FF90EF90E7
:100AB000DF90CF9008950F931F93CF93DF938C0116
:100AC000C0E0D0E0C017D107C4F461E084E0F0DBFF
:100AD00060E083E0EDDB62E370E080E090E0AADCC0
:100AE00060E084E0E5DB61E083E0E2DB62E370E0AC
:100AF00080E090E09FDC2196E5CFDF91CF911F91C0
:100B00000F910895EF92FF920F931F93CF93DF936E
:100B10008C01EB016AE070E080E090E08BDC66E045
:100B200070E084EE93E07DDE6AE070E080E090E0CB
:100B300081DCB80184EE93E0F0DDBE01DD0F880BAF
:100B4000990B78DCE091E403F0E0CF01880F991F66
:100B5000E80FF91FE05BFC4F80818F7B80836CE2A4
:100B600071E080E090E066DC00E012E07801CAE02D
:100B7000D0E0CE0108DE8EE319DCF701819391937A
:100B80007F0168EC70E080E090E054DC2A96C63982
:100B9000D10579F78AE090E0D4EBC0E020E034E0C2
:100BA000F801419151918F01421753071CF4D82F3E
:100BB000C92F9A010A968639910591F7283C31058B
:100BC0000CF034C082E090E076DF8D2F9C2FDBDDCF
:100BD00061E084E06DDB60E083E06ADB83E090E06D
:100BE0006ADF61E084E064DBC6E0D0E061E084E0DD
:100BF0005FDB60E083E05CDB62E370E080E090E07C
:100C000019DC61E083E054DB62E370E080E090E0B7
:100C100011DC219759F760ED77E080E090E0DF91FB
:100C2000CF911F910F91FF90EF9004CC8CE390E057
:100C3000AADD81E090E0DF91CF911F910F91FF90AD
:100C4000EF9039CF009761F0FC0101900020E9F7A7
:100C50003197AF01481B590BBC0183EB92E022CCCA
:100C600080E090E00895EECF8F929F92AF92BF9276
:100C7000CF92DF92EF92FF920F931F93CF93DF9368
:100C8000CDB7DEB7A1970FB6F894DEBF0FBECDBFCC
:100C90006C01990FEE08FF08F7FE28C06DE283EBA8
:100CA00092E096DC8C0122273327A9012C193D09FB
:100CB0004E095F0919A2CE0181967C019AE0892E26
:100CC000912CA12CB12CCA01B901A501940195D494
:100CD000605DF70162937F012115310541055105E2
:100CE00091F7CF01AFDF800F911F1BC0A7019601C5
:100CF00019A28E010F5D1F4F8AE0C82ED12CE12C66
:100D0000F12CCA01B901A701960177D4605DF80101
:100D100062938F01211531054105510591F7CF01EE
:100D200091DFA1960FB6F894DEBF0FBECDBFDF9165
:100D3000CF911F910F91FF90EF90DF90CF90BF90D8
:100D4000AF909F908F900895CF93DF938DDFEC014C
:100D500080E492E077DF8C0F9D1FDF91CF910895A3
:100D600091D41F920F920FB60F9211242F933F939D
:100D70008F939F93AF93BF938091AB029091AC02FE
:100D8000A091AD02B091AE023091AA0223E0230FF0
:100D90002D3720F40196A11DB11D05C026E8230FB3
:100DA0000296A11DB11D2093AA028093AB029093DD
:100DB000AC02A093AD02B093AE028091AF029091CD
:100DC000B002A091B102B091B2020196A11DB11D75
:100DD0008093AF029093B002A093B102B093B2029D
:100DE000BF91AF919F918F913F912F910F900FBE27
:100DF0000F901F9018951F920F920FB60F9211240B
:100E00000BB60F922F933F934F935F936F937F9304
:100E10008F939F93AF93BF93EF93FF9383EB92E0F6
:100E2000B5DBFF91EF91BF91AF919F918F917F9132
:100E30006F915F914F913F912F910F900BBE0F904B
:100E40000FBE0F901F9018951F920F920FB60F9222
:100E500011240BB60F922F938F939F93EF93FF93D1
:100E6000E091C302F091C4028081E091C902F09147
:100E7000CA0282FD12C090818091CC028F5F8F7375
:100E80002091CD02821751F0E091CC02F0E0ED54B8
:100E9000FD4F958F8093CC0201C08081FF91EF912F
:100EA0009F918F912F910F900BBE0F900FBE0F90BF
:100EB0001F9018951F920F920FB60F9211240BB628
:100EC0000F922F933F934F935F936F937F938F93E3
:100ED0009F93AF93BF93EF93FF9348E251E064E297
:100EE00071E080E090E022DDFF91EF91BF91AF9142
:100EF0009F918F917F916F915F914F913F912F9132
:100F00000F900BBE0F900FBE0F901F9018951F9261
:100F10000F920FB60F9211240BB60F922F933F939F
:100F20004F935F936F937F938F939F93AF93BF93F1
:100F3000EF93FF9348EA50E064EA70E083E090E0CA
:100F4000F5DCFF91EF91BF91AF919F918F917F91D0
:100F50006F915F914F913F912F910F900BBE0F902A
:100F60000FBE0F901F9018951F920F920FB60F9201
:100F700011240BB60F922F933F934F935F936F9370
:100F80007F938F939F93AF93BF93EF93FF9348E922
:100F900050E064E970E082E090E0C8DCFF91EF91FE
:100FA000BF91AF919F918F917F916F915F914F9181
:100FB0003F912F910F900BBE0F900FBE0F901F907F
:100FC00018951F920F920FB60F9211240BB60F9225
:100FD0002F933F934F935F936F937F938F939F9341
:100FE000AF93BF93EF93FF9348E850E064E870E05D
:100FF00081E090E09BDCFF91EF91BF91AF919F91D9
:101000008F917F916F915F914F913F912F910F90B1
:101010000BBE0F900FBE0F901F9018951092B60246
:101020001092B50288EE93E0A0E0B0E08093B702A2
:101030009093B802A093B902B093BA0282E392E00F
:101040009093B4028093B30285EC90E09093C00239
:101050008093BF0284EC90E09093C2028093C1021F
:1010600080EC90E09093C4028093C30281EC90E006
:101070009093C6028093C50282EC90E09093C802E0
:101080008093C70286EC90E09093CA028093C902D5
:101090001092CC021092CD021092CE021092CF028A
:1010A0008091E0038033A0F491E0980F9093E003E7
:1010B0008093E40390E0FC01EE0FFF1F8E0F9F1F53
:1010C000FC01E05BFC4F88EB9BE09283818303C0D3
:1010D0008FEF8093E4038091E0038033A0F491E0EC
:1010E000980F9093E0038093E10390E0FC01EE0FF2
:1010F000FF1F8E0F9F1FFC01E05BFC4F88EB9BE006
:101100009283818308958FEF8093E103089578940B
:1011100084B5826084BD84B5816084BD85B58260FC
:1011200085BD85B5816085BD80916E0081608093AD
:101130006E00109281008091810082608093810016
:101140008091810081608093810080918000816026
:10115000809380008091B10084608093B100809181
:10116000B00081608093B000809191008260809394
:101170009100809191008160809391008091900016
:101180008160809390008091A10082608093A10093
:101190008091A10081608093A1008091A000816076
:1011A0008093A00080912101826080932101809131
:1011B00021018160809321018091200181608093D1
:1011C000200180917A00846080937A0080917A0077
:1011D000826080937A0080917A00816080937A00A7
:1011E00080917A00806880937A001092C10084E038
:1011F00040D883E03ED861E083E05AD860E084E0E4
:1012000057D8E091C302F091C40282E08083E0915C
:10121000BF02F091C0021082E091C102F091C202BF
:101220008FEC80831092CB02E091C702F091C8024C
:1012300086E08083E091C502F091C60280818061E2
:101240008083E091C502F091C6028081886080832E
:10125000E091C502F091C602808180688083E091B0
:10126000C502F091C60280818F7D808364E670E0C4
:1012700080E090E0DFD883E492E0E4DC80E492E078
:10128000E1DC6AE070E080E090E0D4D866E070E0F5
:1012900084EE93E0C6DA6AE070E080E090E0CAD8BD
:1012A00068EE73E084EE93E038DA64EF71E080E09A
:1012B00090E0C0D8E091E403F0E0CF01880F991FDF
:1012C000E80FF91FE05BFC4F80818F7B80836CE22D
:1012D00071E080E090E0AED866E070E084EE93E0EC
:1012E000A0DA6AE070E080E090E0A4D860ED77E0FA
:1012F00084EE93E012DA64EF71E080E090E09AD837
:10130000E091E403F0E0CF01880F991FE80FF91F87
:10131000E05BFC4F80818F7B80836CE271E080E03A
:1013200090E088D865E070E081EE93E07ADA68EECC
:1013300073E080E090E07ED884E190E024DA64EF0E
:1013400071E080E090E076D88CE390E01CDA68EC05
:1013500070E080E090E06ED883E090E0ACDB83E565
:1013600092E070DC80E492E06DDC48E0C42ED12C89
:101370000CE211E061E083E00E94580160E084E04B
:101380000E94580164EF71E080E090E053D886E35A
:101390000DD890931F0280931E026AE070E080E0F7
:1013A00090E048D887E302D89093210280932002EE
:1013B0006AE070E080E090E03DD888E30E94D601CA
:1013C00090932302809322026AE070E080E090E034
:1013D00031D889E30E94D60190932502809324029C
:1013E0006AE070E080E090E025D88AE30E94D601B0
:1013F00090932702809326026AE070E080E090E0FC
:1014000019D88BE30E94D601909329028093280279
:101410006AE070E080E090E00DD88CE30E94D60195
:1014200090932B0280932A026AE070E080E090E0C3
:1014300001D88DE30E94D60190932D0280932C0257
:101440006AE070E080E090E00E941A02EEE1F2E0D3
:1014500081E090E02FEF3FEF40E054E06191719127
:101460006417750714F49C01AB010196893091054E
:10147000A9F7443F51400CF092C0C0911C02D0919A
:101480001D02C21BD30B30931D0220931C028BE65E
:1014900092E0E9DBCE01E8DB83E692E0E4DB8091D9
:1014A000A8029091A902E0DBD7FF39C082E792E061
:1014B000DADBE090A802F090A9025701AC1ABD0A4D
:1014C00098E0A916B10494F4D195C195D109C09FB3
:1014D000B001C19F700DD09F700D112488EE93E074
:1014E00011DBB092A902A092A8024FC05E0188E071
:1014F000A80EB11CA09EB001A19E700DB09E700DF3
:10150000112480ED97E0FEDACE0DDF1DD093A90205
:10151000C093A8028FE892E0A6DBC50137C02097F0
:1015200009F43DC087E992E09EDBE090A802F090CC
:10153000A9025E01AE0CBF1C1A141B048CF4C09FE0
:10154000B001C19F700DD09F700D112480ED97E008
:10155000D9DAEC1AFD0AF092A902E092A80215C0AD
:10156000C6018C1B9D0BEC01809FB001819F700D0B
:10157000909F700D112488EE93E0C4DAB092A90216
:10158000A092A8028FE892E06EDBCE016DDB8FE7C0
:1015900092E069DB80911C0290911D02D5DB85D819
:1015A000E9CE052E97FB16F400940FD057FD05D019
:1015B00024D007FC02D046F408C0509540953095E1
:1015C00021953F4F4F4F5F4F0895909580957095AF
:1015D00061957F4F8F4F9F4F089531D0A59F900DFC
:1015E000B49F900DA49F800D911D11240895B7FF05
:1015F000F4CFF3DF821B930B0895A1E21A2EAA1BEE
:10160000BB1BFD010DC0AA1FBB1FEE1FFF1FA217B2
:10161000B307E407F50720F0A21BB30BE40BF50BAF
:10162000661F771F881F991F1A9469F76095709538
:10163000809590959B01AC01BD01CF010895A29FBB
:10164000B001B39FC001A39F700D811D1124911D96
:10165000B29F700D811D1124911D0895991B79E091
:1016600004C0991F961708F0961B881F7A95C9F732
:1016700080950895EE0FFF1F881F8BBF0790F6918E
:10168000E02D199481E090E0F89400C0F894FFCF29
:101690000004000000000000000000000000000046
:1016A0000000000000000000000000000100000435
:1016B000000000000000000000000000000000002A
:1016C0000000E802520280023403B1028F02A3023A
:1016D0000D0A00E6ADA3E59CA8E590AFE58AA82E2B
:1016E0002E2E00E5BC80E5A78BE79B91E6B58B2EFF
:1016F0002E2E002020E7B4AFE8AEA1E6ADA5E99517
:10170000BF002020E9A1BAE697B6E9928820002020
:1017100020E5BD93E5898DE4BD8DE7BDAE200020B9
:1017200020656C736520002020E98086E697B6E985
:04173000928820007B
:00000001FF
